:0A0000000C9434000C9400000C94E2
:10000A0000000C9400000C9400000C9400000C9466
:10001A0000000C9400000C9400000C9400000C9456
:10002A0000000C9400000C9400000C9400000C9446
:10003A0000000C9400000C9400000C9400000C9436
:10004A0000000C9400000C9400000C9400000C9426
:10005A0000000C9400000C9400000C940000F8942A
:10006A00EE27EFBBF1E0F5BFE5BFF8E1A895A4B72D
:10007A00A77FA4BFF0936000E09360008DE0A2E048
:10008A00BB27ED938A95E9F780E098E0A0E0B1E01C
:10009A00ED930197E9F7E0E0EEBBEFEFEDBFE8E0A3
:1000AA00EEBFC0E0D3E00C945A00E0E8E0936100B0
:1000BA00E3E0E0936100EFEFE5B9E0E0E4B9E8B925
:1000CA00EFE3E7B9EFEFEBB9E0E0EAB9E4BDE5BD8C
:1000DA00E6BDE7BDE8BDE0938000E0938100E093D0
:1000EA008500E0938400E0938700E0938600E09324
:1000FA008900E0938800E0938B00E0938A00E09304
:10010A00B600E093B000E093B100E093B200E09350
:10011A00B300E093B400E0936900EDBBE09368009C
:10012A00E0936E00E0936F00E0937000E093C100EB
:10013A00E0E8E0BFE0E0E0937B00E0937F00E0933B
:10014A007A00ECBDE093BC004598189902C0E1E042
:10015A003DC0199902C0E2E039C01A9902C0E3E031
:10016A0035C01B9902C0E4E031C01C9902C0E5E029
:10017A002DC01D9902C0E6E029C01E9902C0E7E021
:10018A0025C01F9902C0E8E221C0489902C0E9E0EF
:10019A001DC0499902C0EAE019C04A9902C0EBE0C1
:1001AA0015C04B9902C0ECE011C04C9902C0EDE0B9
:1001BA000DC04D9902C0EEE009C04E9902C0EFE0B1
:1001CA0005C04F9902C0E0E101C0E0E0E8B9E8B13A
:1001DA00E03049F0459AECE2F1E0FA93EA930E94A2
:1001EA00FA00E0E0E8B9B0CFFFCFE991F991309693
:1001FA0031F08AE28A95F1F7A8953197D1F70895F7
:00000001FF
