:100000000C9468000C94A0000C9403010C94000064
:100010000C9400000C9400000C9400000C94000060
:100020000C9400000C9400000C9400000C94000050
:100030000C9400000C9400000C9400000C94000040
:100040000C9400000C9400000C9400000C94000030
:100050000C9400000C9400000C9400000C94000020
:100060000C9400000C9400001027E80364000A00C0
:10007000010000100001100001004100000000001C
:10008000000000000000000025642E3030256400D0
:1000900025642E3025640025642E256400257325F3
:1000A000632573003D25730001002D4E414E00492C
:1000B0004E46000080C0010049037A000C00030096
:1000C0007C000100B003A8000200B403B4000000EB
:1000D000F894EE27EFBBF1E0F5BFE5BFF8E1A89596
:1000E000A4B7A77FA4BFF0936000E09360008DE009
:1000F000A2E0BB27ED938A95E9F780E098E0A0E0C5
:10010000B1E0ED930197E9F7E6EBF0E08591959189
:10011000009761F0A591B59105901590BF01F00190
:1001200005900D920197E1F7FB01F0CFE0E0EEBB07
:10013000EFEFEDBFE8E0EEBFC0E0D3E00C940E01BE
:100140000A921A92FA926A937A938A939A93AA934A
:10015000BA93EA93FA93EFB7EA93E0E0E0930003EF
:10016000E0930103E0930203E0930303E0930403AD
:10017000E0930503E0930603E0930703E09308038D
:10018000E0930903E0930A03E0930B030E949507B1
:10019000E0931A03E0931B03E0E0E0931603E0937F
:1001A0001703DD24EE24E0931403E09315033324B6
:1001B0004424552466240E949B070E94A0070E94A5
:1001C000A8070E94A0070E94AD07E0E0EA93E6E1DD
:1001D000F0E0FA93EA930E94F803E1E4E093490324
:1001E000E0E0E093AF030E941107E991EFBFF991BE
:1001F000E991B991A9919991899179916991F99030
:10020000199009901895EA93EFB7EA93E6B1EF7168
:10021000E093AE03E991EFBFE9911895E0E8E09330
:100220006100E3E0E0936100E0E0E5B9EFEFE4B9FD
:10023000E0E0E8B9E7B9E4E0EBB9E0E0EAB9E4BD51
:10024000E5BDE6BDE7BDE8BDE0938000E093810039
:10025000E0938500E0938400E0938700E0938600BC
:10026000E0938900E0938800E0938B00E0938A009C
:10027000E093B600E093B000E093B100E093B200E9
:10028000E093B300E093B400ECE0E0936900E3E0B6
:10029000EDBBECBBE0E0E0936800E0936E00E09320
:1002A0006F00E0937000E093C100E0E8E0BFE0E0A1
:1002B000E0937B00E0937F00E0937A00ECBDE09355
:1002C000BC00E0E1EA930E9450077894A0914903B2
:1002D000A13459F456D10D2C0E2831F0E1E0F0E0B4
:1002E000E0931603F093170315C0A0914903A234BD
:1002F00089F4A0911A03B0911B03119759F4D5D139
:100300000E94B207309731F0E1E0F0E0E09318038B
:10031000F0931903A0911603B0911703119711F0F0
:100320000C947902A091AE03AD3029F4EBE20E9467
:10033000B707E093AE03A091AE03AE3029F4EDE22F
:100340000E94B707E093AE03A091AE03AF3029F44B
:10035000E8E70E94B707E093AE03A091AE03A03197
:1003600029F4EFE20E94B707E093AE03A0911803CF
:10037000B0911903119721F4A091AE03AC3009F0AC
:10038000B8C0A091AF03AB3231F50E949B070E9429
:10039000C3070E94CE070E94D9070E94BE090E948F
:1003A000EA0774F40E94430834F40E94AD070E94E7
:1003B00048080E944D080E94AD07E0E9F0E004C043
:1003C0000E94AD07E7E9F0E0FA93EA930E944D0836
:1003D000E0E0E093AE03A091AF03AD32A1F50E943F
:1003E0009B070E94C3070E94CE07A0910403B0910F
:1003F00005038091060390910703E0910003F091BB
:10040000010360910203709103030E94B7090E94E7
:10041000EA0774F40E94430834F40E94AD070E9476
:1004200048080E9462080E94AD07E0E9F0E004C0BD
:100430000E94AD07E7E9F0E0FA93EA930E946208B0
:10044000E0E0E093AE03A091AF03A83731F50E943E
:100450009B070E94C3070E94CE070E94D9070E94F3
:100460000E0A0E94EA0774F40E94430834F40E94C2
:10047000AD070E9448080E9462080E94AD07E0E9AB
:10048000F0E004C00E94AD07E7E9F0E0FA93EA93D8
:100490000E946208E0E0E093AE03A091AF03AF32A8
:1004A00031F50E949B070E94C3070E94CE070E945D
:1004B000D9070E945C0A0E94EA0774F40E9443086C
:1004C00034F40E94AD070E9448080E9462080E940E
:1004D000AD07E0E9F0E004C00E94AD07E7E9F0E015
:1004E000FA93EA930E946208E0E0E093AE030E9470
:1004F0001107E0E0EA93EA930E940007EAE4F3E0E0
:10050000FA93EA93EDE9F0E0FA93EA93EEE1F3E08F
:100510000E947508E091AF03FF27662777270E94A6
:10052000C80AEAE2F3E00E9475088CE00E948E059A
:100530006096EAE4F3E0FA93EA930E944107E0E070
:10054000EA93E1E0EA930E940007ECE7F3E0FA9314
:10055000EA93E4EAF0E0FA93EA93E6E3F3E00E9438
:10056000750884E00E948E052896ECE7F3E0FA9384
:10057000EA930E944107EAEFF0E00E947A08A6CED3
:10058000FFCF0E94DC0A00E010E02D2D3E2DE1E0BF
:10059000F0E0E315F40519F40E947E0802C007E0BC
:1005A00010E00D151E0514F40C945403A091AE0335
:1005B000A13031F40E948508E0E30E948A086EC0F1
:1005C000A091AE03A23031F40E948508E1E30E94BD
:1005D0008A0864C0A091AE03A33031F40E9485085C
:1005E000E2E30E948A085AC0A091AE03A43031F41D
:1005F0000E948508E3E30E948A0850C0A091AE03E0
:10060000A53031F40E948508E4E30E948A0846C0C0
:10061000A091AE03A63031F40E948508E5E30E9464
:100620008A083CC0A091AE03A73031F40E9485082F
:10063000E6E30E948A0832C0A091AE03A83031F4EC
:100640000E948508E7E30E948A0828C0A091AE03B3
:10065000A93031F40E948508E8E30E948A081EC090
:10066000A091AE03AA3031F40E948508E9E30E940C
:100670008A0814C0A091AE03AB3081F4032C042887
:1006800069F40E948508EEE20E948A08E1E0F0E049
:100690003E2E4F2ED0921C03E0921D032D153E05D9
:1006A00019F0E0E0E093AE039FC00E94DC0A00E096
:1006B00010E02091140330911503E1E0F0E0E5151E
:1006C000F60519F40E947E0802C007E010E0A09130
:1006D0001403B09115030A171B0714F40C94F403C8
:1006E000A091AE03A13031F40E949008A0E30E94D3
:1006F000940870C0A091AE03A23031F40E9490081B
:10070000A1E30E94940866C0A091AE03A33031F427
:100710000E949008A2E30E9494085CC0A091AE03DE
:10072000A43031F40E949008A3E30E94940852C0C0
:10073000A091AE03A53031F40E949008A4E30E947A
:10074000940848C0A091AE03A63031F40E949008EE
:10075000A5E30E9494083EC0A091AE03A73031F4F7
:100760000E949008A6E30E94940834C0A091AE03B2
:10077000A83031F40E949008A7E30E9494082AC090
:10078000A091AE03A93031F40E949008A8E30E9422
:10079000940820C0A091AE03AA3031F40E949008C2
:1007A000A9E30E94940816C0A091AE03AB3091F467
:1007B000052C062879F40E949008AEE20E94940865
:1007C000E1E0F0E05E2E6F2E0E94B207E0931C0382
:1007D000F0931D03A0911403B09115032A173B0752
:1007E00019F0E0E0E093AE030E94E30A2496089536
:1007F000B981A881109631F0FC81EB816A81619307
:100800001197E9F7EB81FC810C945704A991B991F8
:10081000EE27FF276D91662311F03196FBCF0895E7
:10082000AA27BB27E991F9910590002011F01196B4
:10083000FBCFFD0108951A930A93AA81BB811296FA
:100840000E94BB0A309759F1AA81BB8114960E947D
:10085000BB0A8F01309761F00230E0E01E07F0F034
:10086000F80131978F01AA81BB811496ED93FC9317
:10087000AA81BB811296ED91FD913196FE93EE9384
:100880003197AC81A083AA81BB810E94BB0AFF2360
:100890002AF0ED91FD913196FE93EE9306C0AA8168
:1008A000BB81EFEFFFEFED93FC9319810881259653
:1008B000089526970E94DA0A10E0AC85BD85E0E035
:1008C000F0E0ED93FC93EA89FB893196EA8BFB8B90
:1008D0003197E4912E2FE03011F40C948605E12F2E
:1008E000E03039F4253211F411E002C00E949D0875
:1008F0000CC1E130A9F4253219F40E949D0804C10D
:1009000012E040E000E02D3211F401E0FEC02B3295
:1009100011F44BE2FAC0203211F440E2F6C002C0FA
:10092000E23039F450E013E0203311F40068EDC0F8
:1009300004C0E33011F00C948505203310F02A3305
:1009400008F007C0AAE05A9F502DE22FE0535E0F37
:10095000DCC0E22FE33649F40E94A608E889F98951
:10096000A481AA930E94AC08CFC0E33741F40E944F
:10097000A6080E94B4080E9406041E2F0AC0E03791
:1009800061F40E94A6080E94B4080E9410041E2F61
:10099000086002600F7730E035C0E43611F0E936C8
:1009A00011F4046002C0E53731F4E8E6F0E0EE83CC
:1009B000FF8315E00DC0E83511F4086004C0E83786
:1009C00011F00C948405E2E7F0E0EE83FF8314E07D
:1009D00002FF14C00E94A6080E94BE08AB85AA238D
:1009E0003AF4EA85FB850E94A50AEA87FB874DE277
:1009F000403011F01F5F01C00B7F04C00E94A608A9
:100A00000E94BE0800FD11C0151778F407FF08C04A
:100A100002FF04C00B7F242F115001C020E301C04E
:100A200020E20E949D085150EFCF312F01FF17C0E7
:100A30003030A1F003FF06C0EE81FF812591EE83E7
:100A4000FF8305C0AE81BF812D91AE83BF830E941D
:100A50009D08503009F051503150EACF4BC020E38F
:100A6000EE81FF810E94C40AE887F987EE81FF8149
:100A70003296EE83FF83E885F985AA85BB85AE179C
:100A8000BF0750F02F5FA885B985EA85FB85EA1B73
:100A9000FB0BEA87FB87EFCF2A3328F003FF02C066
:100AA000295F01C0295D04FD1AC0213320F4A88507
:100AB000B985119709F409C0531710F000FF01C060
:100AC00013C020E207FF0BC020E3006102FF07C054
:100AD0000B7F4A930E94AC08503009F051500E949D
:100AE0009D08503009F051503150A885B9851297B2
:100AF00008F0B5CF00FF08C0503031F05150E0E2AF
:100B0000EA930E94AC08F8CF10E0DDCEAC85BD853D
:100B10000E94BB0A0E94E10A64960895FF92F82E93
:100B200026970E94DC0A0E94C608309719F4EFEF5E
:100B3000FFEF25C0DE0116960E94A10A8D010E94DA
:100B4000C608EE83FF83E0E0E887E987DE011A96B6
:100B50000E94A10A0E94BB0AFA93EA931A930A938D
:100B6000EBE1F4E0FA93EA93FE013A96FA93EA9302
:100B7000A0DE9F01AE81BF81E0E0EC93F9010E940D
:100B8000E30A2A96FF900895E991F99130971AF4B3
:100B9000E095F095319608952A970E94DA0AE0E0F0
:100BA000E887E987EA87EB87A889B989EC915E2F06
:100BB000EA930E948B07E03031F0E889F989319699
:100BC000E88BF98BF1CFE0E0EF835B3221F05D320F
:100BD00039F4E1E0EF83E889F9893196E88BF98B04
:100BE000E0E04E2F5E2F08891989A889B989EC9118
:100BF000EA930E948307E03049F4A889B989AC914F
:100C0000EEE20E94B60A5E2FE03039F0452BE8890B
:100C1000F9893196E88BF98BE8CF288939894030FA
:100C200011F1E889F9893197E88BF98BA889B9899D
:100C3000AC91AE32C1F00E94CD080E94D3080E9450
:100C4000B10A0E9484090E94BE09DF01CB010E9403
:100C5000D8080E945C0A0E94DD08E889F98931976A
:100C6000E88BF98BE3CF0E94E208A889B989119734
:100C7000A88BB98BA017B10798F00E94CD080E94ED
:100C8000EB080E94B10A0E9484090E940E0A0E9489
:100C9000D3080E94BE090E94DD080E94F008E5CF3B
:100CA000D9012F5F3F4F5C91553619F0553409F04B
:100CB00063C0E0E04E2FEE83D9015C915B3221F0FE
:100CC0005D3221F4E1E0EE832F5F3F4FD9012F5FCA
:100CD0003F4FEC915E2FEA930E948307E03079F05A
:100CE000EAE0E49FF001DF01EE27A50FBE1FE0E37D
:100CF000F0E00E94D30AEA1BFB0B4E2FE7CF4732EE
:100D000068F0EF81E03029F0EFEFFFEF6FE77FEF62
:100D100042C0EFEFFFEF6FE77FE73DC050E20E9478
:100D2000E2085030A9F00E94F9080E94EB080E94E6
:100D30000E0AEC87FD876E877F87E42FE52311F08D
:100D40000E94F008E52FF0E0F595E7955E2FE9CFDA
:100D5000EE81E03039F00E94F9080E94D3080E9429
:100D60005C0A06C00E94F9080E94D3080E940E0A7D
:100D7000E887F9876A877B87EF81E03041F0E88573
:100D8000F9856A857B850E9418090E94DD08E8853F
:100D9000F9856A857B850E94E10A62960895E8815B
:100DA000E07111F02C9A01C02C98E881E07211F0EA
:100DB0002D9A01C02D98E881E07411F02E9A01C09F
:100DC0002E98E881E07811F02F9A01C02F9881E0E9
:100DD0008A95F1F72A9A82E08A95F1F72A9882E0BB
:100DE0008A95F1F78EC0E881EA93D9DFE881E29530
:100DF000E883E881EA93D3DF81E18A95F1F781C046
:100E0000E881F0E0EC54FC4FE081A981EA0FEA931D
:100E1000EADFE981E093B803E881E093B903229621
:100E20000895E2E00E94FE08ECE0EA93DCDFE1E0F6
:100E30000E94FE08E0E0E093B903E093B803089550
:100E4000A881AA3031F0E091BA03A091B803AE179F
:100E500068F0E0E0EA93E091B903EF5FE093B90353
:100E6000EA93CEDFA881AA3009F44BC0E091B80321
:100E7000EF5FE093B803289AE881EA93B4DF2898FB
:100E800040C01A93A981BA81ED91A983BA831E2F1C
:100E9000E03019F01A93D4DFF5CF18812396089526
:100EA000249A259A269A279A229A209A219A2A9851
:100EB00028982998E881E093BA03E058E093B603B4
:100EC000E881E054E093B703E4E1F0E00E947A089F
:100ED0000E9404090E9404090E940409E0E2EA93C6
:100EE0005EDF81E28A95F1F7E8E2EA937CDFE4E0F5
:100EF000EA9379DFE5E8EA9376DFE6E0EA9373DFE9
:100F000090DF21960895E1E0F991F03310F0FA3383
:100F100008F0EE270895E1E0F991F03229F0F93078
:100F200010F0FE3008F0EE270895E0E0E09318039B
:100F3000E09319030895EEE1F3E0FA93EA9308953C
:100F4000E0E0EA93ECE0F0E0FA93EA930C94F80323
:100F5000EAE2F3E0FA93EA930895E6E3F3E0FA9322
:100F6000EA930895E0911403F09115030895E09336
:100F7000AF03E2E4E0934903E1E0F0E0E0931A0319
:100F8000F0931B03D2CF0E94CC05E0930003F093B3
:100F900001036093020370930303DACF0E94CC0530
:100FA000E0930403F0930503609306037093070333
:100FB0000895E0910403F091050360910603709198
:100FC0000703A0910003B091010380910203909167
:100FD00003030895E0930803F093090360930A0361
:100FE00070930B030E944D097E2E8F2EE72DF82D56
:100FF000A0910803B091090380910A0390910B031B
:101000000E94B10A0E9484090E94CD0A0E94B70979
:10101000E0931003F0931103609312037093130392
:10102000A0911003B09111038091120390911303CA
:10103000E0E0F0E06AE774E40E940E0A0E944D09C5
:10104000FA93EA930E94C405ACE0B3E066277727E1
:101050000E9484090E94BF0AE0910C03F0910D03E5
:1010600060910E0370910F030E944D09FA93EA9369
:101070000E94C405BE2ECF2E9B2CAC2CE4E6F0E0E3
:101080009E16AF060895EAE0F0E09E16AF060895BA
:10109000E8E8F0E0FA93EA9308958A927A920E943F
:1010A000C405662777270E94C80AAA929A920E94CE
:1010B000C405662777270E94C80A88E00E948E052B
:1010C0002C960895E72DF82D0E94B10A0E94C80AB7
:1010D000AA929A920E94C405662777270E94C80A9E
:1010E00088E00E948E052C960895662777270E9437
:1010F000C80A0895FA93EA930C940C09E0911C0332
:10110000F0911D0332968F010895AEE1B3E0AD0D6D
:10111000BE1D0895EC93E1E0F0E0DE0EEF1E0895B1
:1011200021DFE65DFC4F0895A083A4E1B3E0ED91DB
:10113000FD913196FE93EE9308952A93ED85FE85F9
:10114000FA93EA93E989FA8909950895E889F98972
:101150003497E88BF98B0895ED85FE85FA93EA9331
:10116000E989FA8909950895A889B98914960E9490
:10117000BB0AEE83FF83FA93EA930895A889B9899D
:1011800014960E94BB0AEA87FB870895DE011C962D
:101190000E94A10A0E94BB0A0895A889B989EC910E
:1011A000F0E0F0970895A885B9858A859B85089514
:1011B000E0E0F0E060E271E40895E887F9876A878B
:1011C0007B870895E0E0F0E060E87FE3EC87FD874F
:1011D0006E877F870895AC85BD858E859F85089530
:1011E000FADFE6DF0E940E0AEC87FD876E877F87B5
:1011F0000895EC85FD856E857F850895EA930E94AC
:10120000F306E3E0F0E076CFE0E3EA930E94CF0656
:1012100081E28A95F1F70895E991F991309639F0D4
:101220008AEF90E00197F1F7A8953197C9F70895F3
:1012300030976040704009F070580895552342F48B
:10124000503811F4E0FF04C03196691F791F6BF02C
:1012500050E8572711F45F93CFC05F3F31F0660F1E
:10126000000C57956795752F08955F9300200AF03D
:10127000CFC0C8C050E8192E1522880F991F952796
:10128000550F879550E8072E0522660F771F7527A3
:10129000550F67950895689401C0E8945F93F2DF55
:1012A000703818F07F3F08F4A7C056E1571BAAF426
:1012B000519558300EF4593030F0EFEFFFEF6FEFEB
:1012C0007FE777F91AC077275523B9F0EE0FFF1F94
:1012D000661F771F5A95D1F710C07727583028F02E
:1012E000EF2FF62F672F5850F9CF552331F0769511
:1012F0006795F795E7955A95D1F700200AF429D11B
:101300005F910895689401C0E89430976040704000
:10131000B1F0002426F0772312F400941AD1172E8E
:101320007EE1112032F07A95EE0FFF1F661F111C2F
:10133000F9CFEF2FF62F612D5F938ADF5F9108952C
:101340004F93AF01FD01DA01AB01BC01CA01402D91
:10135000012C142E4F910895EA0FFB1F681F08956A
:10136000E095F0956095EF5FFF4F6F4F08955F93A5
:1013700081DF903871F150E8152604C05F937ADF61
:10138000903839F1703821F1572F591B2BF112F495
:10139000D7DFFACF583118F0AA27BB278827583053
:1013A00028F0AB2FB82F88275850F9CF552329F0B4
:1013B0008695B795A7955A95D9F7502D512572F076
:1013C000CBDF38F46795F795E795739513F420C054
:1013D000B7DF3EDF5F910895D8F7FBCFEA1BFB0B29
:1013E000680B51F010F40094BBDF662392F3EE0F0C
:1013F000FF1F661F7A95CBF7EE27FF276627772713
:101400005F910895EFEFFFEF6FE77FEF5F91089532
:10141000EFEFFFEF6FE77FE75F9108955F932ADFBC
:10142000703851F3903841F301240894791F23F464
:101430001CF300203AF3ECCF0F921F932F933F93AE
:101440004F93112722279927689FA0018F9F302D46
:10145000410D591F6B9F300D411D591F8E9F27D085
:10146000BF9F25D06A9F23D0BE9F1DD0AF9F1BD0AA
:10147000AE9F110D291F391F491F591FE32FF42F4C
:10148000652F522F4F913F912F911F910F906623FF
:101490002AF0550FEE1FFF1F661F02C073954BF217
:1014A000CDDE5F910895100D211D391F02C0200D62
:1014B000311D491F591F08955F93DCDE703821F4F8
:1014C00011200AF49FCFA4CF903809F495CF0124BE
:1014D0000894970B1BF4D4F30020F3CF792F1F93BC
:1014E0002F933F934F93112411272227332744270B
:1014F000552790E2AE17BF078607410730F0AE1BB5
:10150000BF0B860B410B089401C08894551F221F06
:10151000331F111CAA1FBB1F881F441F9A9551F728
:10152000F901612D4F913F912F911F91662332F068
:10153000550FEE1FFF1F661F7A9543F27FDE5F9106
:1015400008950024AF0DB01D0895F195E195F04088
:101550000895F09560957095E195FF4F6F4F7F4F1F
:1015600008956F2F660F660B762F0895EA17E1E056
:1015700009F0EE270895ED91FC9111970895ED93F0
:10158000FD936D937C9308950590F491E02D08955B
:101590007A936A93FA93EA930895182E862F612D11
:1015A000192E972F712D1B2EBF2FF12D1A2EAE2F16
:1015B000E12D08955A934A933A932A931A930A93E2
:1015C00008955D814C813B812A81198108810895AC
:00000001FF
